{
  "contractName": "Transfer",
  "abi": [
    {
      "anonymous": false,
      "inputs": [
        {
          "indexed": true,
          "internalType": "address",
          "name": "_from",
          "type": "address"
        },
        {
          "indexed": true,
          "internalType": "address",
          "name": "_to",
          "type": "address"
        },
        {
          "indexed": false,
          "internalType": "uint256",
          "name": "_value",
          "type": "uint256"
        }
      ],
      "name": "ETransfer",
      "type": "event"
    },
    {
      "inputs": [
        {
          "internalType": "address payable",
          "name": "_to",
          "type": "address"
        },
        {
          "internalType": "bytes32",
          "name": "message_hash",
          "type": "bytes32"
        },
        {
          "internalType": "uint8",
          "name": "_v",
          "type": "uint8"
        },
        {
          "internalType": "bytes32",
          "name": "_r",
          "type": "bytes32"
        },
        {
          "internalType": "bytes32",
          "name": "_s",
          "type": "bytes32"
        }
      ],
      "name": "transfer",
      "outputs": [],
      "stateMutability": "payable",
      "type": "function"
    },
    {
      "inputs": [
        {
          "internalType": "bytes32",
          "name": "msgh",
          "type": "bytes32"
        },
        {
          "internalType": "uint8",
          "name": "v",
          "type": "uint8"
        },
        {
          "internalType": "bytes32",
          "name": "r",
          "type": "bytes32"
        },
        {
          "internalType": "bytes32",
          "name": "s",
          "type": "bytes32"
        }
      ],
      "name": "ecr",
      "outputs": [
        {
          "internalType": "address",
          "name": "sender",
          "type": "address"
        }
      ],
      "stateMutability": "pure",
      "type": "function"
    },
    {
      "inputs": [
        {
          "internalType": "uint256",
          "name": "chatId",
          "type": "uint256"
        },
        {
          "internalType": "address",
          "name": "publicAddress",
          "type": "address"
        },
        {
          "internalType": "bytes",
          "name": "encryptedPrivateKey",
          "type": "bytes"
        },
        {
          "internalType": "bytes",
          "name": "encryptedPhoneNumber",
          "type": "bytes"
        },
        {
          "internalType": "bytes",
          "name": "encryptedEmailAddress",
          "type": "bytes"
        }
      ],
      "name": "registerUser",
      "outputs": [],
      "stateMutability": "nonpayable",
      "type": "function"
    },
    {
      "inputs": [
        {
          "internalType": "uint256",
          "name": "chatId",
          "type": "uint256"
        }
      ],
      "name": "userExists",
      "outputs": [
        {
          "internalType": "bool",
          "name": "",
          "type": "bool"
        }
      ],
      "stateMutability": "view",
      "type": "function"
    },
    {
      "inputs": [
        {
          "internalType": "uint256",
          "name": "chatId",
          "type": "uint256"
        }
      ],
      "name": "getUserByChatId",
      "outputs": [
        {
          "internalType": "address",
          "name": "",
          "type": "address"
        },
        {
          "internalType": "bytes",
          "name": "",
          "type": "bytes"
        },
        {
          "internalType": "bytes",
          "name": "",
          "type": "bytes"
        },
        {
          "internalType": "bytes",
          "name": "",
          "type": "bytes"
        }
      ],
      "stateMutability": "view",
      "type": "function"
    }
  ],
  "bytecode": "0x608060405234801561001057600080fd5b50611296806100206000396000f3fe60806040526004361061004a5760003560e01c806319add5e31461004f5780631d9dbfd51461008c578063622028f6146100cc5780636f93dd91146100f557806386831e0714610132575b600080fd5b34801561005b57600080fd5b5061007660048036038101906100719190610805565b61014e565b60405161008391906108ad565b60405180910390f35b34801561009857600080fd5b506100b360048036038101906100ae91906108fe565b6101a9565b6040516100c394939291906109bb565b60405180910390f35b3480156100d857600080fd5b506100f360048036038101906100ee9190610b76565b610420565b005b34801561010157600080fd5b5061011c600480360381019061011791906108fe565b610502565b6040516101299190610c60565b60405180910390f35b61014c60048036038101906101479190610cb9565b610570565b005b6000600185858585604051600081526020016040526040516101739493929190610d52565b6020604051602081039080840390855afa158015610195573d6000803e3d6000fd5b505050602060405103519050949350505050565b600060608060606101b985610502565b6101f8576040517f08c379a00000000000000000000000000000000000000000000000000000000081526004016101ef90610df4565b60405180910390fd5b60008086815260200190815260200160002060000160009054906101000a900473ffffffffffffffffffffffffffffffffffffffff1660008087815260200190815260200160002060010160008088815260200190815260200160002060020160008089815260200190815260200160002060030182805461027990610e43565b80601f01602080910402602001604051908101604052809291908181526020018280546102a590610e43565b80156102f25780601f106102c7576101008083540402835291602001916102f2565b820191906000526020600020905b8154815290600101906020018083116102d557829003601f168201915b5050505050925081805461030590610e43565b80601f016020809104026020016040519081016040528092919081815260200182805461033190610e43565b801561037e5780601f106103535761010080835404028352916020019161037e565b820191906000526020600020905b81548152906001019060200180831161036157829003601f168201915b5050505050915080805461039190610e43565b80601f01602080910402602001604051908101604052809291908181526020018280546103bd90610e43565b801561040a5780601f106103df5761010080835404028352916020019161040a565b820191906000526020600020905b8154815290600101906020018083116103ed57829003601f168201915b5050505050905093509350935093509193509193565b600060405180608001604052808673ffffffffffffffffffffffffffffffffffffffff1681526020018581526020018481526020018381525090508060008088815260200190815260200160002060008201518160000160006101000a81548173ffffffffffffffffffffffffffffffffffffffff021916908373ffffffffffffffffffffffffffffffffffffffff16021790555060208201518160010190816104ca9190611020565b5060408201518160020190816104e09190611020565b5060608201518160030190816104f69190611020565b50905050505050505050565b60008073ffffffffffffffffffffffffffffffffffffffff1660008084815260200190815260200160002060000160009054906101000a900473ffffffffffffffffffffffffffffffffffffffff1673ffffffffffffffffffffffffffffffffffffffff1614159050919050565b600034116105b3576040517f08c379a00000000000000000000000000000000000000000000000000000000081526004016105aa9061113e565b60405180910390fd5b343373ffffffffffffffffffffffffffffffffffffffff1631101561060d576040517f08c379a0000000000000000000000000000000000000000000000000000000008152600401610604906111aa565b60405180910390fd5b6000600185858585604051600081526020016040526040516106329493929190610d52565b6020604051602081039080840390855afa158015610654573d6000803e3d6000fd5b5050506020604051035190503373ffffffffffffffffffffffffffffffffffffffff168173ffffffffffffffffffffffffffffffffffffffff16146106ce576040517f08c379a00000000000000000000000000000000000000000000000000000000081526004016106c590611216565b60405180910390fd5b8573ffffffffffffffffffffffffffffffffffffffff166108fc349081150290604051600060405180830381858888f19350505050158015610714573d6000803e3d6000fd5b508573ffffffffffffffffffffffffffffffffffffffff163373ffffffffffffffffffffffffffffffffffffffff167faad8a2cf7f8d707d02b9cae48b811b6a385175933ebc1a817cf1ff5af3905f7e346040516107729190611245565b60405180910390a3505050505050565b6000604051905090565b600080fd5b600080fd5b6000819050919050565b6107a981610796565b81146107b457600080fd5b50565b6000813590506107c6816107a0565b92915050565b600060ff82169050919050565b6107e2816107cc565b81146107ed57600080fd5b50565b6000813590506107ff816107d9565b92915050565b6000806000806080858703121561081f5761081e61078c565b5b600061082d878288016107b7565b945050602061083e878288016107f0565b935050604061084f878288016107b7565b9250506060610860878288016107b7565b91505092959194509250565b600073ffffffffffffffffffffffffffffffffffffffff82169050919050565b60006108978261086c565b9050919050565b6108a78161088c565b82525050565b60006020820190506108c2600083018461089e565b92915050565b6000819050919050565b6108db816108c8565b81146108e657600080fd5b50565b6000813590506108f8816108d2565b92915050565b6000602082840312156109145761091361078c565b5b6000610922848285016108e9565b91505092915050565b600081519050919050565b600082825260208201905092915050565b60005b8381101561096557808201518184015260208101905061094a565b60008484015250505050565b6000601f19601f8301169050919050565b600061098d8261092b565b6109978185610936565b93506109a7818560208601610947565b6109b081610971565b840191505092915050565b60006080820190506109d0600083018761089e565b81810360208301526109e28186610982565b905081810360408301526109f68185610982565b90508181036060830152610a0a8184610982565b905095945050505050565b610a1e8161088c565b8114610a2957600080fd5b50565b600081359050610a3b81610a15565b92915050565b600080fd5b600080fd5b7f4e487b7100000000000000000000000000000000000000000000000000000000600052604160045260246000fd5b610a8382610971565b810181811067ffffffffffffffff82111715610aa257610aa1610a4b565b5b80604052505050565b6000610ab5610782565b9050610ac18282610a7a565b919050565b600067ffffffffffffffff821115610ae157610ae0610a4b565b5b610aea82610971565b9050602081019050919050565b82818337600083830152505050565b6000610b19610b1484610ac6565b610aab565b905082815260208101848484011115610b3557610b34610a46565b5b610b40848285610af7565b509392505050565b600082601f830112610b5d57610b5c610a41565b5b8135610b6d848260208601610b06565b91505092915050565b600080600080600060a08688031215610b9257610b9161078c565b5b6000610ba0888289016108e9565b9550506020610bb188828901610a2c565b945050604086013567ffffffffffffffff811115610bd257610bd1610791565b5b610bde88828901610b48565b935050606086013567ffffffffffffffff811115610bff57610bfe610791565b5b610c0b88828901610b48565b925050608086013567ffffffffffffffff811115610c2c57610c2b610791565b5b610c3888828901610b48565b9150509295509295909350565b60008115159050919050565b610c5a81610c45565b82525050565b6000602082019050610c756000830184610c51565b92915050565b6000610c868261086c565b9050919050565b610c9681610c7b565b8114610ca157600080fd5b50565b600081359050610cb381610c8d565b92915050565b600080600080600060a08688031215610cd557610cd461078c565b5b6000610ce388828901610ca4565b9550506020610cf4888289016107b7565b9450506040610d05888289016107f0565b9350506060610d16888289016107b7565b9250506080610d27888289016107b7565b9150509295509295909350565b610d3d81610796565b82525050565b610d4c816107cc565b82525050565b6000608082019050610d676000830187610d34565b610d746020830186610d43565b610d816040830185610d34565b610d8e6060830184610d34565b95945050505050565b600082825260208201905092915050565b7f55736572206e6f7420666f756e64000000000000000000000000000000000000600082015250565b6000610dde600e83610d97565b9150610de982610da8565b602082019050919050565b60006020820190508181036000830152610e0d81610dd1565b9050919050565b7f4e487b7100000000000000000000000000000000000000000000000000000000600052602260045260246000fd5b60006002820490506001821680610e5b57607f821691505b602082108103610e6e57610e6d610e14565b5b50919050565b60008190508160005260206000209050919050565b60006020601f8301049050919050565b600082821b905092915050565b600060088302610ed67fffffffffffffffffffffffffffffffffffffffffffffffffffffffffffffffff82610e99565b610ee08683610e99565b95508019841693508086168417925050509392505050565b6000819050919050565b6000610f1d610f18610f13846108c8565b610ef8565b6108c8565b9050919050565b6000819050919050565b610f3783610f02565b610f4b610f4382610f24565b848454610ea6565b825550505050565b600090565b610f60610f53565b610f6b818484610f2e565b505050565b5b81811015610f8f57610f84600082610f58565b600181019050610f71565b5050565b601f821115610fd457610fa581610e74565b610fae84610e89565b81016020851015610fbd578190505b610fd1610fc985610e89565b830182610f70565b50505b505050565b600082821c905092915050565b6000610ff760001984600802610fd9565b1980831691505092915050565b60006110108383610fe6565b9150826002028217905092915050565b6110298261092b565b67ffffffffffffffff81111561104257611041610a4b565b5b61104c8254610e43565b611057828285610f93565b600060209050601f83116001811461108a5760008415611078578287015190505b6110828582611004565b8655506110ea565b601f19841661109886610e74565b60005b828110156110c05784890151825560018201915060208501945060208101905061109b565b868310156110dd57848901516110d9601f891682610fe6565b8355505b6001600288020188555050505b505050505050565b7f416d6f756e74206d7573742062652067726561746572207468616e2030000000600082015250565b6000611128601d83610d97565b9150611133826110f2565b602082019050919050565b600060208201905081810360008301526111578161111b565b9050919050565b7f496e73756666696369656e742062616c616e6365000000000000000000000000600082015250565b6000611194601483610d97565b915061119f8261115e565b602082019050919050565b600060208201905081810360008301526111c381611187565b9050919050565b7f496e76616c6964207369676e6174757265000000000000000000000000000000600082015250565b6000611200601183610d97565b915061120b826111ca565b602082019050919050565b6000602082019050818103600083015261122f816111f3565b9050919050565b61123f816108c8565b82525050565b600060208201905061125a6000830184611236565b9291505056fea2646970667358221220f46a038aaf4a21502328a56eedcc498c4427bcf27a3f2d434b97a027c62043fd64736f6c63430008110033",
  "immutableReferences": {},
  "source": "// SPDX-License-Identifier: MIT\r\n\r\npragma solidity ^0.8.0;\r\n\r\ncontract Transfer {\r\n\r\n    event ETransfer(address indexed _from, address indexed _to, uint256 _value);\r\n\r\n    function transfer(address payable _to, bytes32 message_hash, uint8 _v, bytes32 _r, bytes32 _s) public payable {\r\n\r\n        require(msg.value > 0, \"Amount must be greater than 0\");\r\n        require(msg.sender.balance >= msg.value, \"Insufficient balance\");\r\n        //        bytes32 prefix = \"\\x19Ethereum Signed Message:\\n32\";\r\n        //        bytes32 prefixedHash = keccak256(abi.encodePacked(prefix, message_hash));\r\n        address recoveredAddress = ecrecover(message_hash, _v, _r, _s);\r\n        require(recoveredAddress == msg.sender, \"Invalid signature\");\r\n        _to.transfer(msg.value);\r\n        emit ETransfer(msg.sender, _to, msg.value);\r\n    }\r\n\r\n\r\n//    struct User {\r\n//        address publicAddress;\r\n//        string encryptedPrivateKey;\r\n//        string encryptedPhoneNumber;\r\n//        string encryptedEmailAddress;\r\n//    }\r\n\r\n    mapping(uint256 => User) chatIdToUser;\r\n\r\n//    function registerUser(uint256 chatId, address publicAddress, string memory encryptedPrivateKey, string memory encryptedPhoneNumber, string memory encryptedEmailAddress) public {\r\n//        User memory newUser = User(publicAddress, encryptedPrivateKey, encryptedPhoneNumber, encryptedEmailAddress);\r\n//        chatIdToUser[chatId] = newUser;\r\n//    }\r\n//\r\n//    function userExists(uint256 chatId) public view returns (bool) {\r\n//        return chatIdToUser[chatId].publicAddress != address(0);\r\n//    }\r\n//\r\n//    function getUserByChatId(uint256 chatId) public view returns (address, string memory, string memory, string memory) {\r\n//        require(userExists(chatId), \"User not found\");\r\n//        return (chatIdToUser[chatId].publicAddress, chatIdToUser[chatId].encryptedPrivateKey, chatIdToUser[chatId].encryptedPhoneNumber, chatIdToUser[chatId].encryptedEmailAddress);\r\n//    }\r\n\r\n    function ecr(bytes32 msgh, uint8 v, bytes32 r, bytes32 s) public pure\r\n    returns (address sender) {\r\n        return ecrecover(msgh, v, r, s);\r\n    }\r\n\r\n    struct User {\r\n        address publicAddress;\r\n        bytes encryptedPrivateKey;\r\n        bytes encryptedPhoneNumber;\r\n        bytes encryptedEmailAddress;\r\n    }\r\n\r\n    function registerUser(\r\n        uint256 chatId,\r\n        address publicAddress,\r\n        bytes memory encryptedPrivateKey,\r\n        bytes memory encryptedPhoneNumber,\r\n        bytes memory encryptedEmailAddress\r\n    ) public {\r\n        User memory newUser = User(\r\n            publicAddress,\r\n            encryptedPrivateKey,\r\n            encryptedPhoneNumber,\r\n            encryptedEmailAddress\r\n        );\r\n        chatIdToUser[chatId] = newUser;\r\n    }\r\n\r\n    function userExists(uint256 chatId) public view returns (bool) {\r\n        return chatIdToUser[chatId].publicAddress != address(0);\r\n    }\r\n\r\n    function getUserByChatId(uint256 chatId) public view returns (address, bytes memory, bytes memory, bytes memory) {\r\n        require(userExists(chatId), \"User not found\");\r\n        return (chatIdToUser[chatId].publicAddress, bytes(chatIdToUser[chatId].encryptedPrivateKey), bytes(chatIdToUser[chatId].encryptedPhoneNumber), bytes(chatIdToUser[chatId].encryptedEmailAddress));\r\n    }\r\n\r\n}",
  "sourcePath": "C:\\Users\\user\\Desktop\\Projects\\SDP\\contracts\\Transfers.sol",
  "compiler": {
    "name": "solc",
    "version": "0.8.17+commit.8df45f5f.Emscripten.clang"
  },
  "schemaVersion": "3.4.11",
  "updatedAt": "2023-04-25T05:43:01.382Z",
  "devdoc": {
    "kind": "dev",
    "methods": {},
    "version": 1
  },
  "userdoc": {
    "kind": "user",
    "methods": {},
    "version": 1
  }
}