{
  "contractName": "SendEther",
  "abi": [
    {
      "inputs": [],
      "stateMutability": "nonpayable",
      "type": "constructor"
    },
    {
      "inputs": [
        {
          "internalType": "address payable",
          "name": "receiver",
          "type": "address"
        },
        {
          "internalType": "uint256",
          "name": "amount",
          "type": "uint256"
        }
      ],
      "name": "sendEther",
      "outputs": [],
      "stateMutability": "payable",
      "type": "function",
      "payable": true
    },
    {
      "inputs": [],
      "name": "checkBalance",
      "outputs": [
        {
          "internalType": "uint256",
          "name": "",
          "type": "uint256"
        }
      ],
      "stateMutability": "view",
      "type": "function",
      "constant": true
    }
  ],
  "bytecode": "0x608060405234801561001057600080fd5b506102c1806100206000396000f3fe6080604052600436106100295760003560e01c8063c1756a2c1461002e578063c71daccb1461004a575b600080fd5b610048600480360381019061004391906101a4565b610075565b005b34801561005657600080fd5b5061005f610103565b60405161006c91906101f3565b60405180910390f35b803410156100b8576040517f08c379a00000000000000000000000000000000000000000000000000000000081526004016100af9061026b565b60405180910390fd5b8173ffffffffffffffffffffffffffffffffffffffff166108fc829081150290604051600060405180830381858888f193505050501580156100fe573d6000803e3d6000fd5b505050565b600047905090565b600080fd5b600073ffffffffffffffffffffffffffffffffffffffff82169050919050565b600061013b82610110565b9050919050565b61014b81610130565b811461015657600080fd5b50565b60008135905061016881610142565b92915050565b6000819050919050565b6101818161016e565b811461018c57600080fd5b50565b60008135905061019e81610178565b92915050565b600080604083850312156101bb576101ba61010b565b5b60006101c985828601610159565b92505060206101da8582860161018f565b9150509250929050565b6101ed8161016e565b82525050565b600060208201905061020860008301846101e4565b92915050565b600082825260208201905092915050565b7f4e6f7420656e6f75676820457468657220746f2073656e640000000000000000600082015250565b600061025560188361020e565b91506102608261021f565b602082019050919050565b6000602082019050818103600083015261028481610248565b905091905056fea264697066735822122097029361917be313b7a84cf5770c8132d30e267ebf8916911d9d80d22c07b83564736f6c63430008110033",
  "immutableReferences": {},
  "source": "// SPDX-License-Identifier: MIT\r\n\r\npragma solidity ^0.8.0;\r\n\r\ncontract SendEther {\r\n    constructor() {\r\n    }\r\n\r\n    function sendEther(address payable receiver, uint256 amount) public payable {\r\n        require(msg.value >= amount, \"Not enough Ether to send\");\r\n        receiver.transfer(amount);\r\n    }\r\n\r\n    function checkBalance() public view returns (uint256) {\r\n        return address(this).balance;\r\n    }\r\n}\r\n\r\n\r\n\r\n\r\n",
  "sourcePath": "C:\\Users\\user\\Desktop\\SDP\\contracts\\Transfer.sol",
  "compiler": {
    "name": "solc",
    "version": "0.8.17+commit.8df45f5f.Emscripten.clang"
  },
  "schemaVersion": "3.4.11",
  "updatedAt": "2023-02-11T17:53:48.875Z",
  "networkType": "ethereum",
  "devdoc": {
    "kind": "dev",
    "methods": {},
    "version": 1
  },
  "userdoc": {
    "kind": "user",
    "methods": {},
    "version": 1
  }
}