{
  "contractName": "Transfer",
  "abi": [
    {
      "anonymous": false,
      "inputs": [
        {
          "indexed": true,
          "internalType": "address",
          "name": "_from",
          "type": "address"
        },
        {
          "indexed": true,
          "internalType": "address",
          "name": "_to",
          "type": "address"
        },
        {
          "indexed": false,
          "internalType": "uint256",
          "name": "_value",
          "type": "uint256"
        }
      ],
      "name": "ETransfer",
      "type": "event"
    },
    {
      "inputs": [
        {
          "internalType": "address payable",
          "name": "_to",
          "type": "address"
        }
      ],
      "name": "transfer",
      "outputs": [],
      "stateMutability": "payable",
      "type": "function"
    },
    {
      "inputs": [
        {
          "internalType": "uint256",
          "name": "chatId",
          "type": "uint256"
        },
        {
          "internalType": "address",
          "name": "publicAddress",
          "type": "address"
        },
        {
          "internalType": "string",
          "name": "encryptedPrivateKey",
          "type": "string"
        },
        {
          "internalType": "string",
          "name": "encryptedPhoneNumber",
          "type": "string"
        },
        {
          "internalType": "string",
          "name": "encryptedEmailAddress",
          "type": "string"
        }
      ],
      "name": "registerUser2",
      "outputs": [],
      "stateMutability": "nonpayable",
      "type": "function"
    },
    {
      "inputs": [
        {
          "internalType": "uint256",
          "name": "chatId",
          "type": "uint256"
        }
      ],
      "name": "getUserByChatId",
      "outputs": [
        {
          "internalType": "address",
          "name": "",
          "type": "address"
        },
        {
          "internalType": "string",
          "name": "",
          "type": "string"
        },
        {
          "internalType": "string",
          "name": "",
          "type": "string"
        },
        {
          "internalType": "string",
          "name": "",
          "type": "string"
        }
      ],
      "stateMutability": "view",
      "type": "function"
    }
  ],
  "bytecode": "0x608060405234801561001057600080fd5b50610e66806100206000396000f3fe6080604052600436106100335760003560e01c80625483b0146100385780631a695230146100615780631d9dbfd51461007d575b600080fd5b34801561004457600080fd5b5061005f600480360381019061005a9190610795565b6100bd565b005b61007b600480360381019061007691906108a2565b61019f565b005b34801561008957600080fd5b506100a4600480360381019061009f91906108cf565b6102d4565b6040516100b4949392919061098a565b60405180910390f35b600060405180608001604052808673ffffffffffffffffffffffffffffffffffffffff1681526020018581526020018481526020018381525090508060008088815260200190815260200160002060008201518160000160006101000a81548173ffffffffffffffffffffffffffffffffffffffff021916908373ffffffffffffffffffffffffffffffffffffffff16021790555060208201518160010190816101679190610bf0565b50604082015181600201908161017d9190610bf0565b5060608201518160030190816101939190610bf0565b50905050505050505050565b600034116101e2576040517f08c379a00000000000000000000000000000000000000000000000000000000081526004016101d990610d0e565b60405180910390fd5b34471015610225576040517f08c379a000000000000000000000000000000000000000000000000000000000815260040161021c90610d7a565b60405180910390fd5b8073ffffffffffffffffffffffffffffffffffffffff166108fc349081150290604051600060405180830381858888f1935050505015801561026b573d6000803e3d6000fd5b508073ffffffffffffffffffffffffffffffffffffffff163373ffffffffffffffffffffffffffffffffffffffff167faad8a2cf7f8d707d02b9cae48b811b6a385175933ebc1a817cf1ff5af3905f7e346040516102c99190610da9565b60405180910390a350565b60006060806060600073ffffffffffffffffffffffffffffffffffffffff1660008087815260200190815260200160002060000160009054906101000a900473ffffffffffffffffffffffffffffffffffffffff1673ffffffffffffffffffffffffffffffffffffffff160361037f576040517f08c379a000000000000000000000000000000000000000000000000000000000815260040161037690610e10565b60405180910390fd5b60008086815260200190815260200160002060000160009054906101000a900473ffffffffffffffffffffffffffffffffffffffff1660008087815260200190815260200160002060010160008088815260200190815260200160002060020160008089815260200190815260200160002060030182805461040090610a13565b80601f016020809104026020016040519081016040528092919081815260200182805461042c90610a13565b80156104795780601f1061044e57610100808354040283529160200191610479565b820191906000526020600020905b81548152906001019060200180831161045c57829003601f168201915b5050505050925081805461048c90610a13565b80601f01602080910402602001604051908101604052809291908181526020018280546104b890610a13565b80156105055780601f106104da57610100808354040283529160200191610505565b820191906000526020600020905b8154815290600101906020018083116104e857829003601f168201915b5050505050915080805461051890610a13565b80601f016020809104026020016040519081016040528092919081815260200182805461054490610a13565b80156105915780601f1061056657610100808354040283529160200191610591565b820191906000526020600020905b81548152906001019060200180831161057457829003601f168201915b5050505050905093509350935093509193509193565b6000604051905090565b600080fd5b600080fd5b6000819050919050565b6105ce816105bb565b81146105d957600080fd5b50565b6000813590506105eb816105c5565b92915050565b600073ffffffffffffffffffffffffffffffffffffffff82169050919050565b600061061c826105f1565b9050919050565b61062c81610611565b811461063757600080fd5b50565b60008135905061064981610623565b92915050565b600080fd5b600080fd5b6000601f19601f8301169050919050565b7f4e487b7100000000000000000000000000000000000000000000000000000000600052604160045260246000fd5b6106a282610659565b810181811067ffffffffffffffff821117156106c1576106c061066a565b5b80604052505050565b60006106d46105a7565b90506106e08282610699565b919050565b600067ffffffffffffffff821115610700576106ff61066a565b5b61070982610659565b9050602081019050919050565b82818337600083830152505050565b6000610738610733846106e5565b6106ca565b90508281526020810184848401111561075457610753610654565b5b61075f848285610716565b509392505050565b600082601f83011261077c5761077b61064f565b5b813561078c848260208601610725565b91505092915050565b600080600080600060a086880312156107b1576107b06105b1565b5b60006107bf888289016105dc565b95505060206107d08882890161063a565b945050604086013567ffffffffffffffff8111156107f1576107f06105b6565b5b6107fd88828901610767565b935050606086013567ffffffffffffffff81111561081e5761081d6105b6565b5b61082a88828901610767565b925050608086013567ffffffffffffffff81111561084b5761084a6105b6565b5b61085788828901610767565b9150509295509295909350565b600061086f826105f1565b9050919050565b61087f81610864565b811461088a57600080fd5b50565b60008135905061089c81610876565b92915050565b6000602082840312156108b8576108b76105b1565b5b60006108c68482850161088d565b91505092915050565b6000602082840312156108e5576108e46105b1565b5b60006108f3848285016105dc565b91505092915050565b61090581610611565b82525050565b600081519050919050565b600082825260208201905092915050565b60005b8381101561094557808201518184015260208101905061092a565b60008484015250505050565b600061095c8261090b565b6109668185610916565b9350610976818560208601610927565b61097f81610659565b840191505092915050565b600060808201905061099f60008301876108fc565b81810360208301526109b18186610951565b905081810360408301526109c58185610951565b905081810360608301526109d98184610951565b905095945050505050565b7f4e487b7100000000000000000000000000000000000000000000000000000000600052602260045260246000fd5b60006002820490506001821680610a2b57607f821691505b602082108103610a3e57610a3d6109e4565b5b50919050565b60008190508160005260206000209050919050565b60006020601f8301049050919050565b600082821b905092915050565b600060088302610aa67fffffffffffffffffffffffffffffffffffffffffffffffffffffffffffffffff82610a69565b610ab08683610a69565b95508019841693508086168417925050509392505050565b6000819050919050565b6000610aed610ae8610ae3846105bb565b610ac8565b6105bb565b9050919050565b6000819050919050565b610b0783610ad2565b610b1b610b1382610af4565b848454610a76565b825550505050565b600090565b610b30610b23565b610b3b818484610afe565b505050565b5b81811015610b5f57610b54600082610b28565b600181019050610b41565b5050565b601f821115610ba457610b7581610a44565b610b7e84610a59565b81016020851015610b8d578190505b610ba1610b9985610a59565b830182610b40565b50505b505050565b600082821c905092915050565b6000610bc760001984600802610ba9565b1980831691505092915050565b6000610be08383610bb6565b9150826002028217905092915050565b610bf98261090b565b67ffffffffffffffff811115610c1257610c1161066a565b5b610c1c8254610a13565b610c27828285610b63565b600060209050601f831160018114610c5a5760008415610c48578287015190505b610c528582610bd4565b865550610cba565b601f198416610c6886610a44565b60005b82811015610c9057848901518255600182019150602085019450602081019050610c6b565b86831015610cad5784890151610ca9601f891682610bb6565b8355505b6001600288020188555050505b505050505050565b7f416d6f756e74206d7573742062652067726561746572207468616e2030000000600082015250565b6000610cf8601d83610916565b9150610d0382610cc2565b602082019050919050565b60006020820190508181036000830152610d2781610ceb565b9050919050565b7f496e73756666696369656e742062616c616e6365000000000000000000000000600082015250565b6000610d64601483610916565b9150610d6f82610d2e565b602082019050919050565b60006020820190508181036000830152610d9381610d57565b9050919050565b610da3816105bb565b82525050565b6000602082019050610dbe6000830184610d9a565b92915050565b7f55736572206e6f7420666f756e64000000000000000000000000000000000000600082015250565b6000610dfa600e83610916565b9150610e0582610dc4565b602082019050919050565b60006020820190508181036000830152610e2981610ded565b905091905056fea2646970667358221220f7183dd5695d4a0d0570604c14909821670693d6b8edd270a2381a67d71fa5da64736f6c63430008110033",
  "immutableReferences": {},
  "source": "pragma solidity ^0.8.0;\r\n\r\ncontract Transfer {\r\n\r\n    event ETransfer(address indexed _from, address indexed _to, uint256 _value);\r\n\r\n    function transfer(address payable _to) public payable {\r\n        require(msg.value > 0, \"Amount must be greater than 0\");\r\n        require(address(this).balance >= msg.value, \"Insufficient balance\");\r\n        _to.transfer(msg.value);\r\n        emit ETransfer(msg.sender, _to, msg.value);\r\n    }\r\n\r\n    struct User {\r\n        address publicAddress;\r\n        string encryptedPrivateKey;\r\n        string encryptedPhoneNumber;\r\n        string encryptedEmailAddress;\r\n    }\r\n\r\n    mapping(uint256 => User) chatIdToUser;\r\n\r\n    function registerUser2(uint256 chatId, address publicAddress, string memory encryptedPrivateKey, string memory encryptedPhoneNumber, string memory encryptedEmailAddress) public {\r\n        User memory newUser = User(publicAddress, encryptedPrivateKey, encryptedPhoneNumber, encryptedEmailAddress);\r\n        chatIdToUser[chatId] = newUser;\r\n    }\r\n\r\n    function getUserByChatId(uint256 chatId) public view returns (address, string memory, string memory, string memory) {\r\n        require(chatIdToUser[chatId].publicAddress != address(0), \"User not found\");\r\n        return (chatIdToUser[chatId].publicAddress, chatIdToUser[chatId].encryptedPrivateKey, chatIdToUser[chatId].encryptedPhoneNumber, chatIdToUser[chatId].encryptedEmailAddress);\r\n    }\r\n\r\n\r\n}",
  "sourcePath": "C:\\Users\\user\\Desktop\\Projects\\SDP\\contracts\\Transfers.sol",
  "compiler": {
    "name": "solc",
    "version": "0.8.17+commit.8df45f5f.Emscripten.clang"
  },
  "schemaVersion": "3.4.11",
  "updatedAt": "2023-03-05T18:27:33.578Z",
  "devdoc": {
    "kind": "dev",
    "methods": {},
    "version": 1
  },
  "userdoc": {
    "kind": "user",
    "methods": {},
    "version": 1
  }
}