{
  "contractName": "Transfer",
  "abi": [
    {
      "anonymous": false,
      "inputs": [
        {
          "indexed": true,
          "internalType": "address",
          "name": "_from",
          "type": "address"
        },
        {
          "indexed": true,
          "internalType": "address",
          "name": "_to",
          "type": "address"
        },
        {
          "indexed": false,
          "internalType": "uint256",
          "name": "_value",
          "type": "uint256"
        }
      ],
      "name": "ETransfer",
      "type": "event"
    },
    {
      "inputs": [
        {
          "internalType": "address payable",
          "name": "_to",
          "type": "address"
        }
      ],
      "name": "transfer",
      "outputs": [],
      "stateMutability": "payable",
      "type": "function"
    }
  ],
  "bytecode": "0x608060405234801561001057600080fd5b50610357806100206000396000f3fe60806040526004361061001e5760003560e01c80631a69523014610023575b600080fd5b61003d600480360381019061003891906101d7565b61003f565b005b60003411610082576040517f08c379a000000000000000000000000000000000000000000000000000000000815260040161007990610261565b60405180910390fd5b344710156100c5576040517f08c379a00000000000000000000000000000000000000000000000000000000081526004016100bc906102cd565b60405180910390fd5b8073ffffffffffffffffffffffffffffffffffffffff166108fc349081150290604051600060405180830381858888f1935050505015801561010b573d6000803e3d6000fd5b508073ffffffffffffffffffffffffffffffffffffffff163373ffffffffffffffffffffffffffffffffffffffff167faad8a2cf7f8d707d02b9cae48b811b6a385175933ebc1a817cf1ff5af3905f7e346040516101699190610306565b60405180910390a350565b600080fd5b600073ffffffffffffffffffffffffffffffffffffffff82169050919050565b60006101a482610179565b9050919050565b6101b481610199565b81146101bf57600080fd5b50565b6000813590506101d1816101ab565b92915050565b6000602082840312156101ed576101ec610174565b5b60006101fb848285016101c2565b91505092915050565b600082825260208201905092915050565b7f416d6f756e74206d7573742062652067726561746572207468616e2030000000600082015250565b600061024b601d83610204565b915061025682610215565b602082019050919050565b6000602082019050818103600083015261027a8161023e565b9050919050565b7f496e73756666696369656e742062616c616e6365000000000000000000000000600082015250565b60006102b7601483610204565b91506102c282610281565b602082019050919050565b600060208201905081810360008301526102e6816102aa565b9050919050565b6000819050919050565b610300816102ed565b82525050565b600060208201905061031b60008301846102f7565b9291505056fea264697066735822122030a80c64c04ee8df6a9f2dd4ef676704414346740badfef4118668b04b2114cb64736f6c63430008110033",
  "immutableReferences": {},
  "source": "pragma solidity ^0.8.0;\r\n\r\ncontract Transfer {\r\n\r\n    event ETransfer(address indexed _from, address indexed _to, uint256 _value);\r\n\r\n    function transfer(address payable _to) public payable {\r\n        require(msg.value > 0, \"Amount must be greater than 0\");\r\n        require(address(this).balance >= msg.value, \"Insufficient balance\");\r\n        _to.transfer(msg.value);\r\n        emit ETransfer(msg.sender, _to, msg.value);\r\n    }\r\n}",
  "sourcePath": "C:\\Users\\user\\Desktop\\SDP\\contracts\\Transfers.sol",
  "compiler": {
    "name": "solc",
    "version": "0.8.17+commit.8df45f5f.Emscripten.clang"
  },
  "schemaVersion": "3.4.11",
  "updatedAt": "2023-02-20T13:37:33.032Z",
  "devdoc": {
    "kind": "dev",
    "methods": {},
    "version": 1
  },
  "userdoc": {
    "kind": "user",
    "methods": {},
    "version": 1
  }
}