{
  "contractName": "Transfer",
  "abi": [
    {
      "anonymous": false,
      "inputs": [
        {
          "indexed": true,
          "internalType": "address",
          "name": "_from",
          "type": "address"
        },
        {
          "indexed": true,
          "internalType": "address",
          "name": "_to",
          "type": "address"
        },
        {
          "indexed": false,
          "internalType": "uint256",
          "name": "_value",
          "type": "uint256"
        }
      ],
      "name": "ETransfer",
      "type": "event"
    },
    {
      "inputs": [
        {
          "internalType": "address payable",
          "name": "_to",
          "type": "address"
        }
      ],
      "name": "transfer",
      "outputs": [],
      "stateMutability": "payable",
      "type": "function"
    },
    {
      "inputs": [
        {
          "internalType": "uint256",
          "name": "chat_id",
          "type": "uint256"
        },
        {
          "internalType": "address payable",
          "name": "_to",
          "type": "address"
        }
      ],
      "name": "transfer2",
      "outputs": [],
      "stateMutability": "payable",
      "type": "function"
    },
    {
      "inputs": [
        {
          "internalType": "uint256",
          "name": "chatId",
          "type": "uint256"
        },
        {
          "internalType": "address",
          "name": "publicAddress",
          "type": "address"
        },
        {
          "internalType": "string",
          "name": "encryptedPrivateKey",
          "type": "string"
        },
        {
          "internalType": "string",
          "name": "encryptedPhoneNumber",
          "type": "string"
        },
        {
          "internalType": "string",
          "name": "encryptedEmailAddress",
          "type": "string"
        }
      ],
      "name": "registerUser2",
      "outputs": [],
      "stateMutability": "nonpayable",
      "type": "function"
    },
    {
      "inputs": [
        {
          "internalType": "uint256",
          "name": "chatId",
          "type": "uint256"
        }
      ],
      "name": "getUserByChatId",
      "outputs": [
        {
          "internalType": "address",
          "name": "",
          "type": "address"
        },
        {
          "internalType": "string",
          "name": "",
          "type": "string"
        },
        {
          "internalType": "string",
          "name": "",
          "type": "string"
        },
        {
          "internalType": "string",
          "name": "",
          "type": "string"
        }
      ],
      "stateMutability": "view",
      "type": "function"
    }
  ],
  "bytecode": "0x608060405234801561001057600080fd5b5061103e806100206000396000f3fe60806040526004361061003e5760003560e01c80625483b0146100435780631a6952301461006c5780631d9dbfd51461008857806329dc9063146100c8575b600080fd5b34801561004f57600080fd5b5061006a6004803603810190610065919061092d565b6100e4565b005b61008660048036038101906100819190610a3a565b6101c6565b005b34801561009457600080fd5b506100af60048036038101906100aa9190610a67565b6102fb565b6040516100bf9493929190610b22565b60405180910390f35b6100e260048036038101906100dd9190610b7c565b6105ce565b005b600060405180608001604052808673ffffffffffffffffffffffffffffffffffffffff1681526020018581526020018481526020018381525090508060008088815260200190815260200160002060008201518160000160006101000a81548173ffffffffffffffffffffffffffffffffffffffff021916908373ffffffffffffffffffffffffffffffffffffffff160217905550602082015181600101908161018e9190610dc8565b5060408201518160020190816101a49190610dc8565b5060608201518160030190816101ba9190610dc8565b50905050505050505050565b60003411610209576040517f08c379a000000000000000000000000000000000000000000000000000000000815260040161020090610ee6565b60405180910390fd5b3447101561024c576040517f08c379a000000000000000000000000000000000000000000000000000000000815260040161024390610f52565b60405180910390fd5b8073ffffffffffffffffffffffffffffffffffffffff166108fc349081150290604051600060405180830381858888f19350505050158015610292573d6000803e3d6000fd5b508073ffffffffffffffffffffffffffffffffffffffff163373ffffffffffffffffffffffffffffffffffffffff167faad8a2cf7f8d707d02b9cae48b811b6a385175933ebc1a817cf1ff5af3905f7e346040516102f09190610f81565b60405180910390a350565b60006060806060600073ffffffffffffffffffffffffffffffffffffffff1660008087815260200190815260200160002060000160009054906101000a900473ffffffffffffffffffffffffffffffffffffffff1673ffffffffffffffffffffffffffffffffffffffff16036103a6576040517f08c379a000000000000000000000000000000000000000000000000000000000815260040161039d90610fe8565b60405180910390fd5b60008086815260200190815260200160002060000160009054906101000a900473ffffffffffffffffffffffffffffffffffffffff1660008087815260200190815260200160002060010160008088815260200190815260200160002060020160008089815260200190815260200160002060030182805461042790610beb565b80601f016020809104026020016040519081016040528092919081815260200182805461045390610beb565b80156104a05780601f10610475576101008083540402835291602001916104a0565b820191906000526020600020905b81548152906001019060200180831161048357829003601f168201915b505050505092508180546104b390610beb565b80601f01602080910402602001604051908101604052809291908181526020018280546104df90610beb565b801561052c5780601f106105015761010080835404028352916020019161052c565b820191906000526020600020905b81548152906001019060200180831161050f57829003601f168201915b5050505050915080805461053f90610beb565b80601f016020809104026020016040519081016040528092919081815260200182805461056b90610beb565b80156105b85780601f1061058d576101008083540402835291602001916105b8565b820191906000526020600020905b81548152906001019060200180831161059b57829003601f168201915b5050505050905093509350935093509193509193565b60003411610611576040517f08c379a000000000000000000000000000000000000000000000000000000000815260040161060890610ee6565b60405180910390fd5b34471015610654576040517f08c379a000000000000000000000000000000000000000000000000000000000815260040161064b90610f52565b60405180910390fd5b600080600084815260200190815260200160002060000160009054906101000a900473ffffffffffffffffffffffffffffffffffffffff1690508173ffffffffffffffffffffffffffffffffffffffff166108fc349081150290604051600060405180830381858888f193505050501580156106d4573d6000803e3d6000fd5b508173ffffffffffffffffffffffffffffffffffffffff168173ffffffffffffffffffffffffffffffffffffffff167faad8a2cf7f8d707d02b9cae48b811b6a385175933ebc1a817cf1ff5af3905f7e346040516107329190610f81565b60405180910390a3505050565b6000604051905090565b600080fd5b600080fd5b6000819050919050565b61076681610753565b811461077157600080fd5b50565b6000813590506107838161075d565b92915050565b600073ffffffffffffffffffffffffffffffffffffffff82169050919050565b60006107b482610789565b9050919050565b6107c4816107a9565b81146107cf57600080fd5b50565b6000813590506107e1816107bb565b92915050565b600080fd5b600080fd5b6000601f19601f8301169050919050565b7f4e487b7100000000000000000000000000000000000000000000000000000000600052604160045260246000fd5b61083a826107f1565b810181811067ffffffffffffffff8211171561085957610858610802565b5b80604052505050565b600061086c61073f565b90506108788282610831565b919050565b600067ffffffffffffffff82111561089857610897610802565b5b6108a1826107f1565b9050602081019050919050565b82818337600083830152505050565b60006108d06108cb8461087d565b610862565b9050828152602081018484840111156108ec576108eb6107ec565b5b6108f78482856108ae565b509392505050565b600082601f830112610914576109136107e7565b5b81356109248482602086016108bd565b91505092915050565b600080600080600060a0868803121561094957610948610749565b5b600061095788828901610774565b9550506020610968888289016107d2565b945050604086013567ffffffffffffffff8111156109895761098861074e565b5b610995888289016108ff565b935050606086013567ffffffffffffffff8111156109b6576109b561074e565b5b6109c2888289016108ff565b925050608086013567ffffffffffffffff8111156109e3576109e261074e565b5b6109ef888289016108ff565b9150509295509295909350565b6000610a0782610789565b9050919050565b610a17816109fc565b8114610a2257600080fd5b50565b600081359050610a3481610a0e565b92915050565b600060208284031215610a5057610a4f610749565b5b6000610a5e84828501610a25565b91505092915050565b600060208284031215610a7d57610a7c610749565b5b6000610a8b84828501610774565b91505092915050565b610a9d816107a9565b82525050565b600081519050919050565b600082825260208201905092915050565b60005b83811015610add578082015181840152602081019050610ac2565b60008484015250505050565b6000610af482610aa3565b610afe8185610aae565b9350610b0e818560208601610abf565b610b17816107f1565b840191505092915050565b6000608082019050610b376000830187610a94565b8181036020830152610b498186610ae9565b90508181036040830152610b5d8185610ae9565b90508181036060830152610b718184610ae9565b905095945050505050565b60008060408385031215610b9357610b92610749565b5b6000610ba185828601610774565b9250506020610bb285828601610a25565b9150509250929050565b7f4e487b7100000000000000000000000000000000000000000000000000000000600052602260045260246000fd5b60006002820490506001821680610c0357607f821691505b602082108103610c1657610c15610bbc565b5b50919050565b60008190508160005260206000209050919050565b60006020601f8301049050919050565b600082821b905092915050565b600060088302610c7e7fffffffffffffffffffffffffffffffffffffffffffffffffffffffffffffffff82610c41565b610c888683610c41565b95508019841693508086168417925050509392505050565b6000819050919050565b6000610cc5610cc0610cbb84610753565b610ca0565b610753565b9050919050565b6000819050919050565b610cdf83610caa565b610cf3610ceb82610ccc565b848454610c4e565b825550505050565b600090565b610d08610cfb565b610d13818484610cd6565b505050565b5b81811015610d3757610d2c600082610d00565b600181019050610d19565b5050565b601f821115610d7c57610d4d81610c1c565b610d5684610c31565b81016020851015610d65578190505b610d79610d7185610c31565b830182610d18565b50505b505050565b600082821c905092915050565b6000610d9f60001984600802610d81565b1980831691505092915050565b6000610db88383610d8e565b9150826002028217905092915050565b610dd182610aa3565b67ffffffffffffffff811115610dea57610de9610802565b5b610df48254610beb565b610dff828285610d3b565b600060209050601f831160018114610e325760008415610e20578287015190505b610e2a8582610dac565b865550610e92565b601f198416610e4086610c1c565b60005b82811015610e6857848901518255600182019150602085019450602081019050610e43565b86831015610e855784890151610e81601f891682610d8e565b8355505b6001600288020188555050505b505050505050565b7f416d6f756e74206d7573742062652067726561746572207468616e2030000000600082015250565b6000610ed0601d83610aae565b9150610edb82610e9a565b602082019050919050565b60006020820190508181036000830152610eff81610ec3565b9050919050565b7f496e73756666696369656e742062616c616e6365000000000000000000000000600082015250565b6000610f3c601483610aae565b9150610f4782610f06565b602082019050919050565b60006020820190508181036000830152610f6b81610f2f565b9050919050565b610f7b81610753565b82525050565b6000602082019050610f966000830184610f72565b92915050565b7f55736572206e6f7420666f756e64000000000000000000000000000000000000600082015250565b6000610fd2600e83610aae565b9150610fdd82610f9c565b602082019050919050565b6000602082019050818103600083015261100181610fc5565b905091905056fea2646970667358221220702f6b1845fbc6ea54f9ec48b2d0c91ae9a257df9e6f6a2ec13d9bd41979e9bd64736f6c63430008110033",
  "immutableReferences": {},
  "source": "pragma solidity ^0.8.0;\r\n\r\ncontract Transfer {\r\n\r\n    event ETransfer(address indexed _from, address indexed _to, uint256 _value);\r\n\r\n    function transfer(address payable _to) public payable {\r\n        require(msg.value > 0, \"Amount must be greater than 0\");\r\n        require(address(this).balance >= msg.value, \"Insufficient balance\");\r\n        _to.transfer(msg.value);\r\n        emit ETransfer(msg.sender, _to, msg.value);\r\n    }\r\n    function transfer2(uint256 chat_id, address payable _to) public payable {\r\n        require(msg.value > 0, \"Amount must be greater than 0\");\r\n        require(address(this).balance >= msg.value, \"Insufficient balance\");\r\n        address sender = chatIdToUser[chat_id].publicAddress;\r\n        _to.transfer(msg.value);\r\n        emit ETransfer(sender, _to, msg.value);\r\n    }\r\n//    event ETransfer(address indexed _from, address indexed _to, uint256 _value);\r\n//\r\n//    function transfer(uint256 chatId, address payable _to, uint256 _value) public {\r\n//        User storage sender = chatIdToUser[chatId];\r\n//        require(sender.publicAddress == msg.sender, \"Invalid sender address\");\r\n//        require(sender.encryptedPrivateKey != \"\", \"Private key not found for sender\");\r\n//        require(sender.encryptedPhoneNumber != \"\", \"Phone number not found for sender\");\r\n//        require(_to != address(0), \"Invalid recipient address\");\r\n//        require(_value > 0, \"Amount must be greater than 0\");\r\n//        require(address(this).balance >= _value, \"Insufficient balance\");\r\n\r\n//        // Decrypt the sender's private key\r\n//        string memory decryptedPrivateKey = decrypt(sender.encryptedPrivateKey);\r\n//        require(bytes(decryptedPrivateKey).length > 0, \"Failed to decrypt private key\");\r\n\r\n//        // Create a new instance of the sender's account\r\n//        address payable senderAccount = payable(new Account(decryptedPrivateKey));\r\n//\r\n//        // Transfer the funds to the recipient\r\n//        _to.transfer(_value);\r\n//\r\n//        // Emit an event to log the transfer\r\n//        emit ETransfer(senderAccount, _to, _value);\r\n//    }\r\n\r\n\r\n    struct User {\r\n        address publicAddress;\r\n        string encryptedPrivateKey;\r\n        string encryptedPhoneNumber;\r\n        string encryptedEmailAddress;\r\n    }\r\n\r\n    mapping(uint256 => User) chatIdToUser;\r\n\r\n    function registerUser2(uint256 chatId, address publicAddress, string memory encryptedPrivateKey, string memory encryptedPhoneNumber, string memory encryptedEmailAddress) public {\r\n        User memory newUser = User(publicAddress, encryptedPrivateKey, encryptedPhoneNumber, encryptedEmailAddress);\r\n        chatIdToUser[chatId] = newUser;\r\n    }\r\n\r\n    function getUserByChatId(uint256 chatId) public view returns (address, string memory, string memory, string memory) {\r\n        require(chatIdToUser[chatId].publicAddress != address(0), \"User not found\");\r\n        return (chatIdToUser[chatId].publicAddress, chatIdToUser[chatId].encryptedPrivateKey, chatIdToUser[chatId].encryptedPhoneNumber, chatIdToUser[chatId].encryptedEmailAddress);\r\n    }\r\n\r\n\r\n}",
  "sourcePath": "C:\\Users\\user\\Desktop\\Projects\\SDP\\contracts\\Transfers.sol",
  "compiler": {
    "name": "solc",
    "version": "0.8.17+commit.8df45f5f.Emscripten.clang"
  },
  "schemaVersion": "3.4.11",
  "updatedAt": "2023-03-06T10:04:28.746Z",
  "devdoc": {
    "kind": "dev",
    "methods": {},
    "version": 1
  },
  "userdoc": {
    "kind": "user",
    "methods": {},
    "version": 1
  }
}